{
  "_format": "hh-sol-artifact-1",
  "contractName": "FairLens",
  "sourceName": "contracts/FairLens.sol",
  "abi": [
    {
      "inputs": [],
      "name": "getAllImages",
      "outputs": [
        {
          "components": [
            {
              "internalType": "string",
              "name": "cid",
              "type": "string"
            },
            {
              "internalType": "address",
              "name": "user",
              "type": "address"
            },
            {
              "internalType": "uint256",
              "name": "upvote",
              "type": "uint256"
            },
            {
              "internalType": "uint256",
              "name": "downvote",
              "type": "uint256"
            },
            {
              "internalType": "uint256",
              "name": "timestamp",
              "type": "uint256"
            }
          ],
          "internalType": "struct FairLens.Image[]",
          "name": "",
          "type": "tuple[]"
        }
      ],
      "stateMutability": "view",
      "type": "function"
    },
    {
      "inputs": [
        {
          "internalType": "uint256",
          "name": "index",
          "type": "uint256"
        }
      ],
      "name": "getImage",
      "outputs": [
        {
          "internalType": "string",
          "name": "cid",
          "type": "string"
        },
        {
          "internalType": "address",
          "name": "user",
          "type": "address"
        },
        {
          "internalType": "uint256",
          "name": "upvote",
          "type": "uint256"
        },
        {
          "internalType": "uint256",
          "name": "downvote",
          "type": "uint256"
        },
        {
          "internalType": "uint256",
          "name": "timestamp",
          "type": "uint256"
        }
      ],
      "stateMutability": "view",
      "type": "function"
    },
    {
      "inputs": [
        {
          "internalType": "uint256",
          "name": "",
          "type": "uint256"
        }
      ],
      "name": "images",
      "outputs": [
        {
          "internalType": "string",
          "name": "cid",
          "type": "string"
        },
        {
          "internalType": "address",
          "name": "user",
          "type": "address"
        },
        {
          "internalType": "uint256",
          "name": "upvote",
          "type": "uint256"
        },
        {
          "internalType": "uint256",
          "name": "downvote",
          "type": "uint256"
        },
        {
          "internalType": "uint256",
          "name": "timestamp",
          "type": "uint256"
        }
      ],
      "stateMutability": "view",
      "type": "function"
    },
    {
      "inputs": [
        {
          "internalType": "string",
          "name": "_cid",
          "type": "string"
        }
      ],
      "name": "uploadImage",
      "outputs": [],
      "stateMutability": "nonpayable",
      "type": "function"
    }
  ],
  "bytecode": "0x6080604052348015600f57600080fd5b50610dd58061001f6000396000f3fe608060405234801561001057600080fd5b506004361061004c5760003560e01c80632607aafa146100515780637b7284fc1461008557806384856482146100a3578063e740c8a0146100d7575b600080fd5b61006b600480360381019061006691906105eb565b6100f3565b60405161007c9594939291906106f8565b60405180910390f35b61008d61025e565b60405161009a91906108f2565b60405180910390f35b6100bd60048036038101906100b891906105eb565b6103c3565b6040516100ce9594939291906106f8565b60405180910390f35b6100f160048036038101906100ec9190610a49565b6104b1565b005b606060008060008060008087815481106101105761010f610a92565b5b90600052602060002090600502016040518060a001604052908160008201805461013990610af0565b80601f016020809104026020016040519081016040528092919081815260200182805461016590610af0565b80156101b25780601f10610187576101008083540402835291602001916101b2565b820191906000526020600020905b81548152906001019060200180831161019557829003601f168201915b505050505081526020016001820160009054906101000a900473ffffffffffffffffffffffffffffffffffffffff1673ffffffffffffffffffffffffffffffffffffffff1673ffffffffffffffffffffffffffffffffffffffff1681526020016002820154815260200160038201548152602001600482015481525050905080600001518160200151826040015183606001518460800151955095509550955095505091939590929450565b60606000805480602002602001604051908101604052809291908181526020016000905b828210156103ba57838290600052602060002090600502016040518060a00160405290816000820180546102b590610af0565b80601f01602080910402602001604051908101604052809291908181526020018280546102e190610af0565b801561032e5780601f106103035761010080835404028352916020019161032e565b820191906000526020600020905b81548152906001019060200180831161031157829003601f168201915b505050505081526020016001820160009054906101000a900473ffffffffffffffffffffffffffffffffffffffff1673ffffffffffffffffffffffffffffffffffffffff1673ffffffffffffffffffffffffffffffffffffffff168152602001600282015481526020016003820154815260200160048201548152505081526020019060010190610282565b50505050905090565b600081815481106103d357600080fd5b90600052602060002090600502016000915090508060000180546103f690610af0565b80601f016020809104026020016040519081016040528092919081815260200182805461042290610af0565b801561046f5780601f106104445761010080835404028352916020019161046f565b820191906000526020600020905b81548152906001019060200180831161045257829003601f168201915b5050505050908060010160009054906101000a900473ffffffffffffffffffffffffffffffffffffffff16908060020154908060030154908060040154905085565b60006040518060a001604052808381526020013373ffffffffffffffffffffffffffffffffffffffff1681526020016000815260200160008152602001428152509050600081908060018154018082558091505060019003906000526020600020906005020160009091909190915060008201518160000190816105359190610ccd565b5060208201518160010160006101000a81548173ffffffffffffffffffffffffffffffffffffffff021916908373ffffffffffffffffffffffffffffffffffffffff16021790555060408201518160020155606082015181600301556080820151816004015550505050565b6000604051905090565b600080fd5b600080fd5b6000819050919050565b6105c8816105b5565b81146105d357600080fd5b50565b6000813590506105e5816105bf565b92915050565b600060208284031215610601576106006105ab565b5b600061060f848285016105d6565b91505092915050565b600081519050919050565b600082825260208201905092915050565b60005b83811015610652578082015181840152602081019050610637565b60008484015250505050565b6000601f19601f8301169050919050565b600061067a82610618565b6106848185610623565b9350610694818560208601610634565b61069d8161065e565b840191505092915050565b600073ffffffffffffffffffffffffffffffffffffffff82169050919050565b60006106d3826106a8565b9050919050565b6106e3816106c8565b82525050565b6106f2816105b5565b82525050565b600060a0820190508181036000830152610712818861066f565b905061072160208301876106da565b61072e60408301866106e9565b61073b60608301856106e9565b61074860808301846106e9565b9695505050505050565b600081519050919050565b600082825260208201905092915050565b6000819050602082019050919050565b600082825260208201905092915050565b600061079a82610618565b6107a4818561077e565b93506107b4818560208601610634565b6107bd8161065e565b840191505092915050565b6107d1816106c8565b82525050565b6107e0816105b5565b82525050565b600060a0830160008301518482036000860152610803828261078f565b915050602083015161081860208601826107c8565b50604083015161082b60408601826107d7565b50606083015161083e60608601826107d7565b50608083015161085160808601826107d7565b508091505092915050565b600061086883836107e6565b905092915050565b6000602082019050919050565b600061088882610752565b610892818561075d565b9350836020820285016108a48561076e565b8060005b858110156108e057848403895281516108c1858261085c565b94506108cc83610870565b925060208a019950506001810190506108a8565b50829750879550505050505092915050565b6000602082019050818103600083015261090c818461087d565b905092915050565b600080fd5b600080fd5b7f4e487b7100000000000000000000000000000000000000000000000000000000600052604160045260246000fd5b6109568261065e565b810181811067ffffffffffffffff821117156109755761097461091e565b5b80604052505050565b60006109886105a1565b9050610994828261094d565b919050565b600067ffffffffffffffff8211156109b4576109b361091e565b5b6109bd8261065e565b9050602081019050919050565b82818337600083830152505050565b60006109ec6109e784610999565b61097e565b905082815260208101848484011115610a0857610a07610919565b5b610a138482856109ca565b509392505050565b600082601f830112610a3057610a2f610914565b5b8135610a408482602086016109d9565b91505092915050565b600060208284031215610a5f57610a5e6105ab565b5b600082013567ffffffffffffffff811115610a7d57610a7c6105b0565b5b610a8984828501610a1b565b91505092915050565b7f4e487b7100000000000000000000000000000000000000000000000000000000600052603260045260246000fd5b7f4e487b7100000000000000000000000000000000000000000000000000000000600052602260045260246000fd5b60006002820490506001821680610b0857607f821691505b602082108103610b1b57610b1a610ac1565b5b50919050565b60008190508160005260206000209050919050565b60006020601f8301049050919050565b600082821b905092915050565b600060088302610b837fffffffffffffffffffffffffffffffffffffffffffffffffffffffffffffffff82610b46565b610b8d8683610b46565b95508019841693508086168417925050509392505050565b6000819050919050565b6000610bca610bc5610bc0846105b5565b610ba5565b6105b5565b9050919050565b6000819050919050565b610be483610baf565b610bf8610bf082610bd1565b848454610b53565b825550505050565b600090565b610c0d610c00565b610c18818484610bdb565b505050565b5b81811015610c3c57610c31600082610c05565b600181019050610c1e565b5050565b601f821115610c8157610c5281610b21565b610c5b84610b36565b81016020851015610c6a578190505b610c7e610c7685610b36565b830182610c1d565b50505b505050565b600082821c905092915050565b6000610ca460001984600802610c86565b1980831691505092915050565b6000610cbd8383610c93565b9150826002028217905092915050565b610cd682610618565b67ffffffffffffffff811115610cef57610cee61091e565b5b610cf98254610af0565b610d04828285610c40565b600060209050601f831160018114610d375760008415610d25578287015190505b610d2f8582610cb1565b865550610d97565b601f198416610d4586610b21565b60005b82811015610d6d57848901518255600182019150602085019450602081019050610d48565b86831015610d8a5784890151610d86601f891682610c93565b8355505b6001600288020188555050505b50505050505056fea2646970667358221220f3e0c8d88f9b8ceaea1ab081d6d5f6d33a3bd593dfb68ccacc7bd88e4620287a64736f6c634300081c0033",
  "linkReferences": {},
  "deployedLinkReferences": {}
}