{
  "_format": "hh-sol-artifact-1",
  "contractName": "Unveil",
  "sourceName": "contracts/Unveil.sol",
  "abi": [
    {
      "anonymous": false,
      "inputs": [
        {
          "indexed": true,
          "internalType": "uint256",
          "name": "postId",
          "type": "uint256"
        },
        {
          "indexed": true,
          "internalType": "address",
          "name": "user",
          "type": "address"
        },
        {
          "indexed": false,
          "internalType": "string",
          "name": "cid",
          "type": "string"
        }
      ],
      "name": "PostUploaded",
      "type": "event"
    },
    {
      "anonymous": false,
      "inputs": [
        {
          "indexed": true,
          "internalType": "uint256",
          "name": "postId",
          "type": "uint256"
        },
        {
          "indexed": true,
          "internalType": "address",
          "name": "voter",
          "type": "address"
        }
      ],
      "name": "VoteCast",
      "type": "event"
    },
    {
      "inputs": [
        {
          "internalType": "uint256",
          "name": "",
          "type": "uint256"
        }
      ],
      "name": "doesExist",
      "outputs": [
        {
          "internalType": "bool",
          "name": "",
          "type": "bool"
        }
      ],
      "stateMutability": "view",
      "type": "function"
    },
    {
      "inputs": [],
      "name": "getPosts",
      "outputs": [
        {
          "components": [
            {
              "internalType": "string",
              "name": "cidHash",
              "type": "string"
            },
            {
              "internalType": "address",
              "name": "user",
              "type": "address"
            },
            {
              "internalType": "uint256",
              "name": "votes",
              "type": "uint256"
            },
            {
              "internalType": "uint256",
              "name": "timestamp",
              "type": "uint256"
            }
          ],
          "internalType": "struct Unveil.Post[]",
          "name": "",
          "type": "tuple[]"
        }
      ],
      "stateMutability": "view",
      "type": "function"
    },
    {
      "inputs": [
        {
          "internalType": "uint256",
          "name": "",
          "type": "uint256"
        },
        {
          "internalType": "address",
          "name": "",
          "type": "address"
        }
      ],
      "name": "hasVoted",
      "outputs": [
        {
          "internalType": "bool",
          "name": "",
          "type": "bool"
        }
      ],
      "stateMutability": "view",
      "type": "function"
    },
    {
      "inputs": [],
      "name": "postCount",
      "outputs": [
        {
          "internalType": "uint256",
          "name": "",
          "type": "uint256"
        }
      ],
      "stateMutability": "view",
      "type": "function"
    },
    {
      "inputs": [
        {
          "internalType": "uint256",
          "name": "",
          "type": "uint256"
        }
      ],
      "name": "posts",
      "outputs": [
        {
          "internalType": "string",
          "name": "cidHash",
          "type": "string"
        },
        {
          "internalType": "address",
          "name": "user",
          "type": "address"
        },
        {
          "internalType": "uint256",
          "name": "votes",
          "type": "uint256"
        },
        {
          "internalType": "uint256",
          "name": "timestamp",
          "type": "uint256"
        }
      ],
      "stateMutability": "view",
      "type": "function"
    },
    {
      "inputs": [
        {
          "internalType": "string",
          "name": "_cid",
          "type": "string"
        }
      ],
      "name": "uploadPost",
      "outputs": [],
      "stateMutability": "nonpayable",
      "type": "function"
    },
    {
      "inputs": [
        {
          "internalType": "uint256",
          "name": "postId",
          "type": "uint256"
        }
      ],
      "name": "vote",
      "outputs": [],
      "stateMutability": "nonpayable",
      "type": "function"
    }
  ],
  "bytecode": "0x608060405234801561001057600080fd5b50611222806100206000396000f3fe608060405234801561001057600080fd5b506004361061007d5760003560e01c806341f3004a1161005b57806341f3004a146100ef578063438596321461010d578063bdd05adb1461013d578063e8b72196146101595761007d565b80630121b93f146100825780630b1e7f831461009e57806317906c2e146100d1575b600080fd5b61009c6004803603810190610097919061082b565b610189565b005b6100b860048036038101906100b3919061082b565b610361565b6040516100c89493929190610938565b60405180910390f35b6100d9610439565b6040516100e69190610984565b60405180910390f35b6100f761043f565b6040516101049190610b2c565b60405180910390f35b61012760048036038101906101229190610b7a565b6105fa565b6040516101349190610bd5565b60405180910390f35b61015760048036038101906101529190610d25565b610629565b005b610173600480360381019061016e919061082b565b610783565b6040516101809190610bd5565b60405180910390f35b6002600082815260200190815260200160002060009054906101000a900460ff166101e9576040517f08c379a00000000000000000000000000000000000000000000000000000000081526004016101e090610dba565b60405180910390fd5b6001600082815260200190815260200160002060003373ffffffffffffffffffffffffffffffffffffffff1673ffffffffffffffffffffffffffffffffffffffff16815260200190815260200160002060009054906101000a900460ff1615610287576040517f08c379a000000000000000000000000000000000000000000000000000000000815260040161027e90610e26565b60405180910390fd5b60008082815260200190815260200160002060020160008154809291906102ad90610e75565b9190505550600180600083815260200190815260200160002060003373ffffffffffffffffffffffffffffffffffffffff1673ffffffffffffffffffffffffffffffffffffffff16815260200190815260200160002060006101000a81548160ff0219169083151502179055503373ffffffffffffffffffffffffffffffffffffffff16817ff1003b73c437642c0460aee9cd9628b0b8c447b66e6c7c905531b9c644214a1160405160405180910390a350565b600060205280600052604060002060009150905080600001805461038490610eec565b80601f01602080910402602001604051908101604052809291908181526020018280546103b090610eec565b80156103fd5780601f106103d2576101008083540402835291602001916103fd565b820191906000526020600020905b8154815290600101906020018083116103e057829003601f168201915b5050505050908060010160009054906101000a900473ffffffffffffffffffffffffffffffffffffffff16908060020154908060030154905084565b60035481565b6060600060035467ffffffffffffffff81111561045f5761045e610bfa565b5b60405190808252806020026020018201604052801561049857816020015b6104856107a3565b81526020019060019003908161047d5790505b50905060005b6003548110156105f2576000808281526020019081526020016000206040518060800160405290816000820180546104d590610eec565b80601f016020809104026020016040519081016040528092919081815260200182805461050190610eec565b801561054e5780601f106105235761010080835404028352916020019161054e565b820191906000526020600020905b81548152906001019060200180831161053157829003601f168201915b505050505081526020016001820160009054906101000a900473ffffffffffffffffffffffffffffffffffffffff1673ffffffffffffffffffffffffffffffffffffffff1673ffffffffffffffffffffffffffffffffffffffff168152602001600282015481526020016003820154815250508282815181106105d4576105d3610f1d565b5b602002602001018190525080806105ea90610e75565b91505061049e565b508091505090565b60016020528160005260406000206020528060005260406000206000915091509054906101000a900460ff1681565b60405180608001604052808281526020013373ffffffffffffffffffffffffffffffffffffffff16815260200160008152602001428152506000806003548152602001908152602001600020600082015181600001908161068a91906110f8565b5060208201518160010160006101000a81548173ffffffffffffffffffffffffffffffffffffffff021916908373ffffffffffffffffffffffffffffffffffffffff1602179055506040820151816002015560608201518160030155905050600160026000600354815260200190815260200160002060006101000a81548160ff0219169083151502179055503373ffffffffffffffffffffffffffffffffffffffff166003547f281f8a71a201223e111e60ed96238c88271424c35dd3b592961308801398a5ca8360405161076091906111ca565b60405180910390a36003600081548092919061077b90610e75565b919050555050565b60026020528060005260406000206000915054906101000a900460ff1681565b604051806080016040528060608152602001600073ffffffffffffffffffffffffffffffffffffffff16815260200160008152602001600081525090565b6000604051905090565b600080fd5b600080fd5b6000819050919050565b610808816107f5565b811461081357600080fd5b50565b600081359050610825816107ff565b92915050565b600060208284031215610841576108406107eb565b5b600061084f84828501610816565b91505092915050565b600081519050919050565b600082825260208201905092915050565b60005b83811015610892578082015181840152602081019050610877565b60008484015250505050565b6000601f19601f8301169050919050565b60006108ba82610858565b6108c48185610863565b93506108d4818560208601610874565b6108dd8161089e565b840191505092915050565b600073ffffffffffffffffffffffffffffffffffffffff82169050919050565b6000610913826108e8565b9050919050565b61092381610908565b82525050565b610932816107f5565b82525050565b6000608082019050818103600083015261095281876108af565b9050610961602083018661091a565b61096e6040830185610929565b61097b6060830184610929565b95945050505050565b60006020820190506109996000830184610929565b92915050565b600081519050919050565b600082825260208201905092915050565b6000819050602082019050919050565b600082825260208201905092915050565b60006109e782610858565b6109f181856109cb565b9350610a01818560208601610874565b610a0a8161089e565b840191505092915050565b610a1e81610908565b82525050565b610a2d816107f5565b82525050565b60006080830160008301518482036000860152610a5082826109dc565b9150506020830151610a656020860182610a15565b506040830151610a786040860182610a24565b506060830151610a8b6060860182610a24565b508091505092915050565b6000610aa28383610a33565b905092915050565b6000602082019050919050565b6000610ac28261099f565b610acc81856109aa565b935083602082028501610ade856109bb565b8060005b85811015610b1a5784840389528151610afb8582610a96565b9450610b0683610aaa565b925060208a01995050600181019050610ae2565b50829750879550505050505092915050565b60006020820190508181036000830152610b468184610ab7565b905092915050565b610b5781610908565b8114610b6257600080fd5b50565b600081359050610b7481610b4e565b92915050565b60008060408385031215610b9157610b906107eb565b5b6000610b9f85828601610816565b9250506020610bb085828601610b65565b9150509250929050565b60008115159050919050565b610bcf81610bba565b82525050565b6000602082019050610bea6000830184610bc6565b92915050565b600080fd5b600080fd5b7f4e487b7100000000000000000000000000000000000000000000000000000000600052604160045260246000fd5b610c328261089e565b810181811067ffffffffffffffff82111715610c5157610c50610bfa565b5b80604052505050565b6000610c646107e1565b9050610c708282610c29565b919050565b600067ffffffffffffffff821115610c9057610c8f610bfa565b5b610c998261089e565b9050602081019050919050565b82818337600083830152505050565b6000610cc8610cc384610c75565b610c5a565b905082815260208101848484011115610ce457610ce3610bf5565b5b610cef848285610ca6565b509392505050565b600082601f830112610d0c57610d0b610bf0565b5b8135610d1c848260208601610cb5565b91505092915050565b600060208284031215610d3b57610d3a6107eb565b5b600082013567ffffffffffffffff811115610d5957610d586107f0565b5b610d6584828501610cf7565b91505092915050565b7f54686520706f737420646f65736e27742065786973742e000000000000000000600082015250565b6000610da4601783610863565b9150610daf82610d6e565b602082019050919050565b60006020820190508181036000830152610dd381610d97565b9050919050565b7f596f75206861766520616c726561647920766f74656421000000000000000000600082015250565b6000610e10601783610863565b9150610e1b82610dda565b602082019050919050565b60006020820190508181036000830152610e3f81610e03565b9050919050565b7f4e487b7100000000000000000000000000000000000000000000000000000000600052601160045260246000fd5b6000610e80826107f5565b91507fffffffffffffffffffffffffffffffffffffffffffffffffffffffffffffffff8203610eb257610eb1610e46565b5b600182019050919050565b7f4e487b7100000000000000000000000000000000000000000000000000000000600052602260045260246000fd5b60006002820490506001821680610f0457607f821691505b602082108103610f1757610f16610ebd565b5b50919050565b7f4e487b7100000000000000000000000000000000000000000000000000000000600052603260045260246000fd5b60008190508160005260206000209050919050565b60006020601f8301049050919050565b600082821b905092915050565b600060088302610fae7fffffffffffffffffffffffffffffffffffffffffffffffffffffffffffffffff82610f71565b610fb88683610f71565b95508019841693508086168417925050509392505050565b6000819050919050565b6000610ff5610ff0610feb846107f5565b610fd0565b6107f5565b9050919050565b6000819050919050565b61100f83610fda565b61102361101b82610ffc565b848454610f7e565b825550505050565b600090565b61103861102b565b611043818484611006565b505050565b5b818110156110675761105c600082611030565b600181019050611049565b5050565b601f8211156110ac5761107d81610f4c565b61108684610f61565b81016020851015611095578190505b6110a96110a185610f61565b830182611048565b50505b505050565b600082821c905092915050565b60006110cf600019846008026110b1565b1980831691505092915050565b60006110e883836110be565b9150826002028217905092915050565b61110182610858565b67ffffffffffffffff81111561111a57611119610bfa565b5b6111248254610eec565b61112f82828561106b565b600060209050601f8311600181146111625760008415611150578287015190505b61115a85826110dc565b8655506111c2565b601f19841661117086610f4c565b60005b8281101561119857848901518255600182019150602085019450602081019050611173565b868310156111b557848901516111b1601f8916826110be565b8355505b6001600288020188555050505b505050505050565b600060208201905081810360008301526111e481846108af565b90509291505056fea264697066735822122015df9aa58d0a3953d9a038261a72f9c69a62b66989c88459e939b706039c234464736f6c63430008140033",
  "linkReferences": {},
  "deployedLinkReferences": {}
}